:10040800486561727420526174653A20202020206A
:0104180000E3
:03000300010900F0
:1002AF0012039C1203C67BFF7A0479087D107F80AE
:1002BF00120337D28CD28EE50A60FCE4F50AE50D05
:1002CF00700AE50EB4300E750E208009750E20757C
:1002DF000F207510207B007A00790E7D037FCD12E1
:0402EF00033780D37E
:03001B0002001EC2
:10001E00C0E0C0F0C083C082C0D075D000C000C0A8
:0D002E0001C002C003C004C005C006C00729
:10003B00758DD8758BF0E50814601B146020146067
:10004B002814603024046003020121309003020164
:10005B0021050802012120900D05080201212090A5
:10006B0005050802012102011E2090050508020169
:10007B002102011E209003020121E50964016003A6
:10008B00020115AE0BAF0CAB07AA06F9F87F607E29
:10009B00EAFDFC1202F3E47B64FAF9F81202F3EFC7
:1000AB002430F50EAE0BAF0CAB07AA06E4F9F87FC4
:1000BB00607EEAFDFC1202F3E47B64FAF9F81202AB
:1000CB00F3AC00AD01AE02AF03E47B0AFAF9F81210
:1000DB0002F3EF2430F50FAE0BAF0CAB07AA06E41F
:1000EB00F9F87F607EEAFDFC1202F3E47B0AFAF971
:1000FB00F81202F3EB2430F510750A01750B00753D
:10010B000C00750900750D008009750B00750C004E
:06011B00750901750800E2
:10012100D007D006D005D004D003D002D001D00032
:0B013100D0D0D082D083D0F0D0E032DC
:03000B0002036E7F
:10036E00C0E0C0D0758CFC758A18050CE50C7002C7
:10037E00050BB48814E50BB4130F750B00750C0048
:0E038E00750A01750900750D01D0D0D0E0325E
:1003C600D2AFD2A9D2AB758911758CFC758A187516
:0603D6008DD8758BF022AA
:080337008D118B128A13891449
:10033F00E4F5151203F2E4F515E515C39511501EFA
:10034F00AB12AA13A91412013CF516FF1203DC74A9
:0E035F00012514F514E43513F513051580DBA4
:01036D00226D
:1003DC008F1712000EC2A7D2A5C2A600D2A78517EE
:0603EC0080C2A7C2A52299
:1003F2008F1712000EC2A7C2A5C2A600D2A78517E8
:0604020080C2A7C2A52282
:10039C0012000E12000E7F381203F27F381203F295
:1003AC007F381203F27F061203F27F0C1203F27FE6
:0A03BC00011203F212000E02000EFF
:08000E007FB97E0CDEFEDFFA73
:0100160022C7
:03000000020223D6
:0C022300787FE4F6D8FD75811702026AAE
:10013C00BB010689828A83E0225002E722BBFE02C1
:09014C00E32289828A83E49322F4
:1002F300C2D5E830E70FB2D5E4C39BFBE49AFAE436
:1003030099F9E498F8EC30E717B2D51203291201F2
:1003130091E4C39BFBE49AFAE499F9E498F8800327
:1003230012019130D50DE4C39FFFE49EFEE49DFDD1
:04033300E49CFC2228
:10022F000202AFE493A3F8E493A34003F68001F234
:10023F0008DFF48029E493A3F85407240CC8C333D0
:10024F00C4540F4420C8834004F456800146F6DF9F
:10025F00E4800B0102040810204080900003E47E2C
:10026F00019360BCA3FF543F30E509541FFEE49394
:10027F00A360010ECF54C025E060A840B8E493A35B
:10028F00FAE493A3F8E493A3C8C582C8CAC583CA86
:10029F00F0A3C8C582C8CAC583CADFE9DEE780BE3E
:0100060000F9
:1001550075F008758200EF2FFFEE33FECD33CDCC61
:1001650033CCC58233C5829BED9AEC99E5829840E4
:100175000CF582EE9BFEED9AFDEC99FC0FD5F0D6C1
:10018500E4CEFBE4CDFAE4CCF9A88222B800C1B9EB
:100195000059BA002DEC8BF084CFCECDFCE5F0CB29
:1001A500F97818EF2FFFEE33FEED33FDEC33FCEB62
:1001B50033FB10D703994004EB99FB0FD8E5E4F91D
:1001C500FA227818EF2FFFEE33FEED33FDEC33FC0A
:1001D500C933C910D7059BE99A4007EC9BFCE99AFE
:1001E500F90FD8E0E4C9FAE4CCFB2275F010EF2F43
:1001F500FFEE33FEED33FDCC33CCC833C810D70743
:100205009BEC9AE899400AED9BFDEC9AFCE899F87D
:0E0215000FD5F0DAE4CDFBE4CCFAE4C8F92210
:00000001FF
